:100000000C942A000C9447000C9447000C94470071
:100010000C9447000C9447000C9447000C94470044
:100020000C9447000C9447000C941B040C9447005C
:100030000C9447000C9447000C9447000C94470024
:100040000C9447000C9447000C9447000C94470014
:100050000C94470011241FBECFE5D8E0DEBFCDBF12
:1000600010E0A0E6B0E0EEECF8E002C005900D92E2
:10007000A237B107D9F720E0A2E7B0E001C01D9296
:10008000A937B207E1F70E9449000C9465040C946B
:100090000000CF93DF931F92CDB7DEB7809166004B
:1000A000909167000E94F401809164009091650036
:1000B0000E94F40180916200909163000E94F4011B
:1000C00080916000909161000E94F40160E081E005
:1000D0000E94F2020E9483008FEF8983CE01019675
:1000E0000E94D70069818FEF860F893010F06F3F33
:1000F000A9F76295607F81E00E94F202EFCF8EEF58
:100100008093680008950E94C00341E065E082E0AA
:100110000E94FC01811139C041E066E082E00E944A
:10012000FC01811134C041E067E082E00E94FC01E3
:1001300081112FC042E062E082E00E94FC01811147
:100140002AC042E063E082E00E94FC01811125C0E8
:1001500042E064E082E00E94FC01811120C041E0A5
:1001600065E082E00E94080381111BC041E066E067
:1001700082E00E940803811116C041E067E082E03E
:100180000E940803811111C0089581E6089581E657
:10019000089581E6089581E6089581E6089581E64F
:1001A000089581E6089581E6089581E60895CF9245
:1001B000DF92EF92FF920F931F93CF93DF93CDB710
:1001C000DEB72A970FB6F894DEBF0FBECDBF7C0115
:1001D00099E0E9E6F0E0DE01129601900D929A9521
:1001E000E1F7E114F10409F4EAC0809168008E3F60
:1001F00009F4D4C0D8F58D3F09F488C0E2C040E0CE
:100200006F2D82E00E940803811102E612E023C0F4
:10021000AE014F5F5F4F612F82E00E948203811128
:1002200002E68981811116C0812F90E002972F2D5F
:1002300030E025503109AC01440F551F840F951F44
:1002400041E050E04C0F5D1F840F951FFC01E20F51
:10025000F31FC1801F5F1530D8F241E06F2D82E09F
:100260000E940803811102E6F39405C00F2EF5E009
:10027000FF2EF02D00E057E05F1508F0C0CF8FEFA4
:10028000C81609F4A1C08DEF809368006FE770E095
:100290008AE090E00E94FE03811195C095C040E085
:1002A0006D2D82E00E940803811102E612E023C056
:1002B000AE014F5F5F4F612F82E00E948203811188
:1002C00002E68981811116C0212F30E022503109C8
:1002D0008D2D90E00597A901440F551F240F351F60
:1002E000E1E0F0E0EC0FFD1F2E0F3F1FF901E80FDA
:1002F000F91FC1801F5F1530D8F241E06D2D82E0FB
:100300000E940803811102E6D39405C00F2EF5E088
:10031000DF2EF02D00E0F7E0FD1508F0C0CF809152
:1003200068008E3F09F050C0F701C0824DC040E028
:100330006F2D82E00E940803811102E612E023C0C3
:10034000AE014F5F5F4F612F82E00E9482038111F7
:1003500002E68981811116C0812F90E002972F2D2E
:1003600030E025503109AC01440F551F840F951F13
:1003700041E050E04C0F5D1F840F951FFC01E20F20
:10038000F31FE1801F5F1530D8F241E06F2D82E04E
:100390000E940803811102E6F39407C00F2EF5E0D6
:1003A000FF2EF02DEE24EA9400E057E05F1508F0F0
:1003B000BECF8FEFE81208C08093680005C002E648
:1003C00003C000E001C002E6802F2A960FB6F89421
:1003D000DEBF0FBECDBFDF91CF911F910F91FF9078
:1003E000EF90DF90CF90089541E0692F0E94FC01CB
:1003F000843109F481E30895683008F0E7C0813062
:1004000009F43FC038F0823009F472C0833009F437
:10041000A6C0DEC0413049F118F0423091F0DAC098
:100420002AB381E090E002C0880F991F6A95E2F735
:100430008095922F98239ABB9BB389238BBB80E036
:10044000089580B78B7F80BF2AB381E090E002C01F
:10045000880F991F6A95E2F7982F909592239ABB7F
:100460009BB3892B8BBB80E008952AB381E090E099
:1004700002C0880F991F6A95E2F7822B8ABB80E041
:100480000895413049F118F0423091F0A5C027B3EA
:1004900081E090E002C0880F991F6A95E2F780958D
:1004A000922F982397BB98B3892388BB80E0089547
:1004B00080B78B7F80BF27B381E090E002C0880FB8
:1004C000991F6A95E2F7982F9095922397BB98B35E
:1004D000892B88BB80E0089527B381E090E002C0BB
:1004E000880F991F6A95E2F7822B87BB80E00895F9
:1004F000413049F118F0423091F070C024B381E0EE
:1005000090E002C0880F991F6A95E2F78095922FBC
:10051000982394BB95B3892385BB80E0089580B769
:100520008B7F80BF24B381E090E002C0880F991FC9
:100530006A95E2F7982F9095922394BB95B3892BF7
:1005400085BB80E0089524B381E090E002C0880F6D
:10055000991F6A95E2F7822B84BB80E008954130B1
:1005600049F118F0423091F03BC021B381E090E0B6
:1005700002C0880F991F6A95E2F78095922F982301
:1005800091BB9BB389238BBB80E0089580B78B7FA1
:1005900080BF21B381E090E002C0880F991F6A9567
:1005A000E2F7982F9095922391BB92B3892B82BB4F
:1005B00080E0089521B381E090E002C0880F991F88
:1005C0006A95E2F7822B81BB80E0089582E108956D
:1005D00082E1089582E1089582E1089582E108951B
:1005E00082E10895813049F028F0823049F083306B
:1005F00051F00CC06BBB80E0089568BB80E00895AB
:1006000065BB80E0089562BB80E0089583E10895B2
:10061000683008F06BC0813001F130F08230B1F108
:10062000833009F44BC064C0423008F063C05BB350
:1006300021E030E0062E02C0220F331F0A94E2F7B9
:10064000842F90E002C0880F991F6A95E2F72095E9
:100650002523822B8BBB80E00895423008F04CC0EC
:1006600058B321E030E0062E02C0220F331F0A9457
:10067000E2F7842F90E002C0880F991F6A95E2F795
:1006800020952523822B88BB80E008954230B0F569
:1006900055B321E030E0062E02C0220F331F0A942A
:1006A000E2F7842F90E002C0880F991F6A95E2F765
:1006B00020952523822B85BB80E00895423000F5EC
:1006C00052B321E030E0062E02C0220F331F0A94FD
:1006D000E2F7842F90E002C0880F991F6A95E2F735
:1006E00020952523822B82BB80E0089584E1089524
:1006F00084E1089584E1089584E1089584E10895F2
:1007000084E108956830C0F5813091F028F082309E
:10071000D9F0833029F132C089B390E002C09595B9
:1007200087956A95E2F78170FA01808380E00895E9
:1007300086B390E002C0959587956A95E2F781703F
:10074000FA01808380E0089583B390E002C095951C
:1007500087956A95E2F78170FA01808380E00895B9
:1007600080B390E002C0959587956A95E2F7817015
:10077000FA01808380E0089586E1089586E1089576
:1007800083B78F7B83BF83B7886083BF8FB7806851
:100790008FBF89B7826089BF03B606FC0BC003B662
:1007A00003FE0AC00FB607FE09C009B601FC08C067
:1007B00081E4089581E4089581E4089581E4089531
:1007C00080E008958DE78CBF83B7816083BF83B7D6
:1007D000826083BF83B78B7F83BF03B600FE08C0F0
:1007E00003B601FE07C003B602FE06C082E4089508
:1007F00082E4089582E4089580E008959C01909138
:1008000074009130A1F081E08093740030937800FF
:10081000209377006115710561F070937300609308
:1008200072000E94C0030E94E20380E0089584E405
:10083000089584E408951F920F920FB60F92112429
:100840002F933F934F935F936F937F938F939F93D8
:10085000AF93BF93EF93FF938091750090917600D3
:1008600001969093760080937500209175003091E9
:100870007600809177009091780028173907A1F4CD
:100880008091720090917300892B71F01092760024
:100890001092750089B78D7F89BF10927400E09126
:1008A0007200F09173000995FF91EF91BF91AF91A4
:1008B0009F918F917F916F915F914F913F912F9178
:0E08C0000F900FBE0F901F901895F894FFCF69
:1008CE000107010601050104FF01020304050607E5
:0208DE00080907
:00000001FF
