S00E00004B45595041442E7372656358
S11300000C9433000C9450000C9450000C94500049
S11300100C9450000C9450000C9450000C9450001C
S11300200C9450000C9450000C94DE030C9450007B
S11300300C9450000C9450000C9450000C945000FC
S11300400C9450000C9450000C9450000C945000EC
S11300500C945000840089008E00930098009D0049
S1130060A200A700AC0011241FBECFE5D8E0DEBF7C
S1130070CDBF10E0A0E6B0E0E0E6F8E002C00590F5
S11300800D92A237B107D9F720E0A2E7B0E001C092
S11300901D92A937B207E1F70E9452000C942E0476
S11300A00C940000CF93DF931F92CDB7DEB78091FD
S11300B06600909167000E948C0180916400909189
S11300C065000E948C0180916200909163000E94FF
S11300D08C0180916000909161000E948C0118BA9B
S11300E00E94B1008FEF8983CE0101960E94030123
S11300F0E9818E2F90E0FC013197E930F105A0F7FA
S1130100E65DFF4F0C94280460E181E00E948A02BE
S1130110EBCF60E281E00E948A02E6CF60E381E0F7
S11301200E948A02E1CF60E481E00E948A02DCCF6F
S113013060E581E00E948A02D7CF60E681E00E94F8
S11301408A02D2CF60E781E00E948A02CDCF60E8C4
S113015081E00E948A02C8CF60E981E00E948A029D
S1130160C3CF41E065E082E00E949401811139C06F
S113017041E066E082E00E949401811134C041E0D4
S113018067E082E00E94940181112FC042E062E0A6
S113019082E00E94940181112AC042E063E082E07F
S11301A00E949401811125C042E064E082E00E9433
S11301B09401811120C041E065E082E00E94A00228
S11301C081111BC041E066E082E00E94A00281111F
S11301D016C041E067E082E00E94A002811111C0D4
S11301E0089581E6089581E6089581E6089581E6FB
S11301F0089581E6089581E6089581E6089581E6EB
S1130200089581E60895CF92DF92EF92FF920F93C3
S11302101F93CF93DF93CDB7DEB72A970FB6F89429
S1130220DEBF0FBECDBF7C0199E0E8E6F0E0DE0161
S1130230129601900D929A95E1F7E114F10409F0F8
S113024052C00F2EF2E6DF2EF02D56C040E0602F94
S113025082E00E94A002882321F00F2EF2E6DF2E16
S1130260F02D12E031C0AE014F5F5F4F612F82E08D
S11302700E941A03882321F00F2EF2E6DF2EF02DC0
S11302808981811120C0212F30E022503109802F33
S113029090E00597A901440F551F240F351F41E035
S11302A050E04C0F5D1F240F351FF901E80FF91FB3
S11302B0C1808AE090E00E94B803882321F00F2EC9
S11302C0F2E6DF2EF02D1F5F153068F241E0602F5B
S11302D082E00E94A002882321F00F2EF2E6DF2E96
S11302E0F02D0F5F04C005E0CC24CA94D12C083053
S11302F008F4ACCFF701C0828D2D2A960FB6F8947E
S1130300DEBF0FBECDBFDF91CF911F910F91FF9044
S1130310EF90DF90CF90089541E0692F0E949401FF
S1130320843109F481E30895683008F0E7C081302E
S113033009F43FC038F0823009F472C0833009F404
S1130340A6C0DEC0413049F118F0423091F0DAC065
S11303502AB381E090E002C0880F991F6A95E2F702
S11303608095922F98239ABB9BB389238BBB80E003
S1130370089580B78B7F80BF2AB381E090E002C0EC
S1130380880F991F6A95E2F7982F909592239ABB4C
S11303909BB3892B8BBB80E008952AB381E090E066
S11303A002C0880F991F6A95E2F7822B8ABB80E00E
S11303B00895413049F118F0423091F0A5C027B3B7
S11303C081E090E002C0880F991F6A95E2F780955A
S11303D0922F982397BB98B3892388BB80E0089514
S11303E080B78B7F80BF27B381E090E002C0880F85
S11303F0991F6A95E2F7982F9095922397BB98B32B
S1130400892B88BB80E0089527B381E090E002C087
S1130410880F991F6A95E2F7822B87BB80E00895C5
S1130420413049F118F0423091F070C024B381E0BA
S113043090E002C0880F991F6A95E2F78095922F89
S1130440982394BB95B3892385BB80E0089580B736
S11304508B7F80BF24B381E090E002C0880F991F96
S11304606A95E2F7982F9095922394BB95B3892BC4
S113047085BB80E0089524B381E090E002C0880F3A
S1130480991F6A95E2F7822B84BB80E0089541307E
S113049049F118F0423091F03BC021B381E090E083
S11304A002C0880F991F6A95E2F78095922F9823CE
S11304B091BB9BB389238BBB80E0089580B78B7F6E
S11304C080BF21B381E090E002C0880F991F6A9534
S11304D0E2F7982F9095922391BB92B3892B82BB1C
S11304E080E0089521B381E090E002C0880F991F55
S11304F06A95E2F7822B81BB80E0089582E108953A
S113050082E1089582E1089582E1089582E10895E7
S113051082E10895813049F028F0823049F0833037
S113052051F00CC06BBB80E0089568BB80E0089577
S113053065BB80E0089562BB80E0089583E108957F
S1130540683008F06BC0813001F130F08230B1F1D5
S1130550833009F44BC064C0423008F063C05BB31D
S113056021E030E0062E02C0220F331F0A94E2F786
S1130570842F90E002C0880F991F6A95E2F72095B6
S11305802523822B8BBB80E00895423008F04CC0B9
S113059058B321E030E0062E02C0220F331F0A9424
S11305A0E2F7842F90E002C0880F991F6A95E2F762
S11305B020952523822B88BB80E008954230B0F536
S11305C055B321E030E0062E02C0220F331F0A94F7
S11305D0E2F7842F90E002C0880F991F6A95E2F732
S11305E020952523822B85BB80E00895423000F5B9
S11305F052B321E030E0062E02C0220F331F0A94CA
S1130600E2F7842F90E002C0880F991F6A95E2F701
S113061020952523822B82BB80E0089584E10895F0
S113062084E1089584E1089584E1089584E10895BE
S113063084E108956830C0F5813091F028F082306B
S1130640D9F0833029F132C089B390E002C0959586
S113065087956A95E2F78170FA01808380E00895B6
S113066086B390E002C0959587956A95E2F781700C
S1130670FA01808380E0089583B390E002C09595E9
S113068087956A95E2F78170FA01808380E0089586
S113069080B390E002C0959587956A95E2F78170E2
S11306A0FA01808380E0089586E1089586E1089543
S11306B083B78F7B83BF83B7886083BF8FB780681E
S11306C08FBF89B7826089BF03B606FC0BC003B62F
S11306D003FE0AC00FB607FE09C009B601FC08C034
S11306E081E4089581E4089581E4089581E40895FE
S11306F081E008958DE78CBF83B7816083BF83B7A2
S1130700826083BF83B78B7F83BF03B600FE08C0BC
S113071003B601FE07C003B602FE06C082E40895D4
S113072082E4089582E4089581E0089583B78E7F7A
S113073083BF83B78D7F83BF83B78B7F83BF89B725
S11307408D7F89BF03B600FC0BC003B601FC0AC051
S113075003B602FC09C009B601FE08C082E408958C
S113076082E4089582E4089582E4089581E008957E
S113077020917400213001F121E020937400109243
S113078076001092750090937800809377000E9411
S113079058030E947A03209175003091760080916D
S11307A077009091780082179307A8F70E94960328
S11307B01092740081E0089585E408951F920F92C9
S11307C00FB60F9211242F933F934F935F936F9320
S11307D07F938F939F93AF93BF93EF93FF938091F6
S11307E07500909176000196909376008093750041
S11307F02091750030917600809177009091780077
S113080028173907A1F48091720090917300892B05
S113081071F0109276001092750089B78D7F89BFB0
S113082010927400E0917200F09173000995FF91A9
S1130830EF91BF91AF919F918F917F916F915F9154
S11308404F913F912F910F900FBE0F901F901895CD
S1130850EE0FFF1F0590F491E02D0994F894FFCF5B
S11308600107010601050104010203040506070846
S1050870090079
S9030000FC
